{
  "abi": [
    {
      "type": "constructor",
      "inputs": [
        {
          "name": "_serviceNFT_A",
          "type": "address",
          "internalType": "address"
        }
      ],
      "stateMutability": "nonpayable"
    },
    {
      "type": "function",
      "name": "buy",
      "inputs": [
        {
          "name": "_list",
          "type": "tuple",
          "internalType": "struct IEchoEcho.ServiceInfo",
          "components": [
            {
              "name": "provider",
              "type": "address",
              "internalType": "address"
            },
            {
              "name": "nft_ca",
              "type": "address",
              "internalType": "address"
            },
            {
              "name": "token_id",
              "type": "uint256",
              "internalType": "uint256"
            },
            {
              "name": "price",
              "type": "uint256",
              "internalType": "uint256"
            },
            {
              "name": "trialPriceBP",
              "type": "uint256",
              "internalType": "uint256"
            },
            {
              "name": "trialDurationBP",
              "type": "uint256",
              "internalType": "uint256"
            },
            {
              "name": "max_duration",
              "type": "uint256",
              "internalType": "uint256"
            },
            {
              "name": "list_endtime",
              "type": "uint256",
              "internalType": "uint256"
            }
          ]
        }
      ],
      "outputs": [],
      "stateMutability": "payable"
    },
    {
      "type": "function",
      "name": "buyWithSign",
      "inputs": [
        {
          "name": "_list",
          "type": "tuple",
          "internalType": "struct IEchoEcho.ServiceInfo",
          "components": [
            {
              "name": "provider",
              "type": "address",
              "internalType": "address"
            },
            {
              "name": "nft_ca",
              "type": "address",
              "internalType": "address"
            },
            {
              "name": "token_id",
              "type": "uint256",
              "internalType": "uint256"
            },
            {
              "name": "price",
              "type": "uint256",
              "internalType": "uint256"
            },
            {
              "name": "trialPriceBP",
              "type": "uint256",
              "internalType": "uint256"
            },
            {
              "name": "trialDurationBP",
              "type": "uint256",
              "internalType": "uint256"
            },
            {
              "name": "max_duration",
              "type": "uint256",
              "internalType": "uint256"
            },
            {
              "name": "list_endtime",
              "type": "uint256",
              "internalType": "uint256"
            }
          ]
        },
        {
          "name": "_providerSignature",
          "type": "bytes",
          "internalType": "bytes"
        }
      ],
      "outputs": [],
      "stateMutability": "payable"
    },
    {
      "type": "function",
      "name": "cancelList",
      "inputs": [
        {
          "name": "_list",
          "type": "tuple",
          "internalType": "struct IEchoEcho.ServiceInfo",
          "components": [
            {
              "name": "provider",
              "type": "address",
              "internalType": "address"
            },
            {
              "name": "nft_ca",
              "type": "address",
              "internalType": "address"
            },
            {
              "name": "token_id",
              "type": "uint256",
              "internalType": "uint256"
            },
            {
              "name": "price",
              "type": "uint256",
              "internalType": "uint256"
            },
            {
              "name": "trialPriceBP",
              "type": "uint256",
              "internalType": "uint256"
            },
            {
              "name": "trialDurationBP",
              "type": "uint256",
              "internalType": "uint256"
            },
            {
              "name": "max_duration",
              "type": "uint256",
              "internalType": "uint256"
            },
            {
              "name": "list_endtime",
              "type": "uint256",
              "internalType": "uint256"
            }
          ]
        }
      ],
      "outputs": [],
      "stateMutability": "nonpayable"
    },
    {
      "type": "function",
      "name": "cancelListWithSign",
      "inputs": [
        {
          "name": "_list",
          "type": "tuple",
          "internalType": "struct IEchoEcho.ServiceInfo",
          "components": [
            {
              "name": "provider",
              "type": "address",
              "internalType": "address"
            },
            {
              "name": "nft_ca",
              "type": "address",
              "internalType": "address"
            },
            {
              "name": "token_id",
              "type": "uint256",
              "internalType": "uint256"
            },
            {
              "name": "price",
              "type": "uint256",
              "internalType": "uint256"
            },
            {
              "name": "trialPriceBP",
              "type": "uint256",
              "internalType": "uint256"
            },
            {
              "name": "trialDurationBP",
              "type": "uint256",
              "internalType": "uint256"
            },
            {
              "name": "max_duration",
              "type": "uint256",
              "internalType": "uint256"
            },
            {
              "name": "list_endtime",
              "type": "uint256",
              "internalType": "uint256"
            }
          ]
        },
        {
          "name": "_providerSignature",
          "type": "bytes",
          "internalType": "bytes"
        }
      ],
      "outputs": [],
      "stateMutability": "nonpayable"
    },
    {
      "type": "function",
      "name": "cancelOrder",
      "inputs": [
        {
          "name": "_list",
          "type": "tuple",
          "internalType": "struct IEchoEcho.ServiceInfo",
          "components": [
            {
              "name": "provider",
              "type": "address",
              "internalType": "address"
            },
            {
              "name": "nft_ca",
              "type": "address",
              "internalType": "address"
            },
            {
              "name": "token_id",
              "type": "uint256",
              "internalType": "uint256"
            },
            {
              "name": "price",
              "type": "uint256",
              "internalType": "uint256"
            },
            {
              "name": "trialPriceBP",
              "type": "uint256",
              "internalType": "uint256"
            },
            {
              "name": "trialDurationBP",
              "type": "uint256",
              "internalType": "uint256"
            },
            {
              "name": "max_duration",
              "type": "uint256",
              "internalType": "uint256"
            },
            {
              "name": "list_endtime",
              "type": "uint256",
              "internalType": "uint256"
            }
          ]
        }
      ],
      "outputs": [],
      "stateMutability": "nonpayable"
    },
    {
      "type": "function",
      "name": "canceledOrders",
      "inputs": [
        {
          "name": "",
          "type": "bytes32",
          "internalType": "bytes32"
        }
      ],
      "outputs": [
        {
          "name": "",
          "type": "bool",
          "internalType": "bool"
        }
      ],
      "stateMutability": "view"
    },
    {
      "type": "function",
      "name": "eip712Domain",
      "inputs": [],
      "outputs": [
        {
          "name": "fields",
          "type": "bytes1",
          "internalType": "bytes1"
        },
        {
          "name": "name",
          "type": "string",
          "internalType": "string"
        },
        {
          "name": "version",
          "type": "string",
          "internalType": "string"
        },
        {
          "name": "chainId",
          "type": "uint256",
          "internalType": "uint256"
        },
        {
          "name": "verifyingContract",
          "type": "address",
          "internalType": "address"
        },
        {
          "name": "salt",
          "type": "bytes32",
          "internalType": "bytes32"
        },
        {
          "name": "extensions",
          "type": "uint256[]",
          "internalType": "uint256[]"
        }
      ],
      "stateMutability": "view"
    },
    {
      "type": "function",
      "name": "feeBP",
      "inputs": [],
      "outputs": [
        {
          "name": "",
          "type": "uint256",
          "internalType": "uint256"
        }
      ],
      "stateMutability": "view"
    },
    {
      "type": "function",
      "name": "feeTo",
      "inputs": [],
      "outputs": [
        {
          "name": "",
          "type": "address",
          "internalType": "address"
        }
      ],
      "stateMutability": "view"
    },
    {
      "type": "function",
      "name": "getServiceInfo",
      "inputs": [
        {
          "name": "key",
          "type": "bytes32",
          "internalType": "bytes32"
        }
      ],
      "outputs": [
        {
          "name": "",
          "type": "tuple",
          "internalType": "struct IEchoEcho.ServiceInfo",
          "components": [
            {
              "name": "provider",
              "type": "address",
              "internalType": "address"
            },
            {
              "name": "nft_ca",
              "type": "address",
              "internalType": "address"
            },
            {
              "name": "token_id",
              "type": "uint256",
              "internalType": "uint256"
            },
            {
              "name": "price",
              "type": "uint256",
              "internalType": "uint256"
            },
            {
              "name": "trialPriceBP",
              "type": "uint256",
              "internalType": "uint256"
            },
            {
              "name": "trialDurationBP",
              "type": "uint256",
              "internalType": "uint256"
            },
            {
              "name": "max_duration",
              "type": "uint256",
              "internalType": "uint256"
            },
            {
              "name": "list_endtime",
              "type": "uint256",
              "internalType": "uint256"
            }
          ]
        }
      ],
      "stateMutability": "view"
    },
    {
      "type": "function",
      "name": "list",
      "inputs": [
        {
          "name": "_token_id",
          "type": "uint256",
          "internalType": "uint256"
        },
        {
          "name": "_price",
          "type": "uint256",
          "internalType": "uint256"
        },
        {
          "name": "_trialPriceBP",
          "type": "uint256",
          "internalType": "uint256"
        },
        {
          "name": "_trialDurationBP",
          "type": "uint256",
          "internalType": "uint256"
        },
        {
          "name": "_max_duration",
          "type": "uint256",
          "internalType": "uint256"
        },
        {
          "name": "_list_endtime",
          "type": "uint256",
          "internalType": "uint256"
        }
      ],
      "outputs": [],
      "stateMutability": "nonpayable"
    },
    {
      "type": "function",
      "name": "lists",
      "inputs": [
        {
          "name": "",
          "type": "bytes32",
          "internalType": "bytes32"
        }
      ],
      "outputs": [
        {
          "name": "provider",
          "type": "address",
          "internalType": "address"
        },
        {
          "name": "nft_ca",
          "type": "address",
          "internalType": "address"
        },
        {
          "name": "token_id",
          "type": "uint256",
          "internalType": "uint256"
        },
        {
          "name": "price",
          "type": "uint256",
          "internalType": "uint256"
        },
        {
          "name": "trialPriceBP",
          "type": "uint256",
          "internalType": "uint256"
        },
        {
          "name": "trialDurationBP",
          "type": "uint256",
          "internalType": "uint256"
        },
        {
          "name": "max_duration",
          "type": "uint256",
          "internalType": "uint256"
        },
        {
          "name": "list_endtime",
          "type": "uint256",
          "internalType": "uint256"
        }
      ],
      "stateMutability": "view"
    },
    {
      "type": "function",
      "name": "orders",
      "inputs": [
        {
          "name": "",
          "type": "bytes32",
          "internalType": "bytes32"
        }
      ],
      "outputs": [
        {
          "name": "consumer",
          "type": "address",
          "internalType": "address"
        },
        {
          "name": "start_time",
          "type": "uint256",
          "internalType": "uint256"
        },
        {
          "name": "serviceInfo",
          "type": "tuple",
          "internalType": "struct IEchoEcho.ServiceInfo",
          "components": [
            {
              "name": "provider",
              "type": "address",
              "internalType": "address"
            },
            {
              "name": "nft_ca",
              "type": "address",
              "internalType": "address"
            },
            {
              "name": "token_id",
              "type": "uint256",
              "internalType": "uint256"
            },
            {
              "name": "price",
              "type": "uint256",
              "internalType": "uint256"
            },
            {
              "name": "trialPriceBP",
              "type": "uint256",
              "internalType": "uint256"
            },
            {
              "name": "trialDurationBP",
              "type": "uint256",
              "internalType": "uint256"
            },
            {
              "name": "max_duration",
              "type": "uint256",
              "internalType": "uint256"
            },
            {
              "name": "list_endtime",
              "type": "uint256",
              "internalType": "uint256"
            }
          ]
        },
        {
          "name": "cancelOrder",
          "type": "bool",
          "internalType": "bool"
        }
      ],
      "stateMutability": "view"
    },
    {
      "type": "function",
      "name": "owner",
      "inputs": [],
      "outputs": [
        {
          "name": "",
          "type": "address",
          "internalType": "address"
        }
      ],
      "stateMutability": "view"
    },
    {
      "type": "function",
      "name": "renounceOwnership",
      "inputs": [],
      "outputs": [],
      "stateMutability": "nonpayable"
    },
    {
      "type": "function",
      "name": "serviceIncome",
      "inputs": [
        {
          "name": "",
          "type": "bytes32",
          "internalType": "bytes32"
        }
      ],
      "outputs": [
        {
          "name": "",
          "type": "uint256",
          "internalType": "uint256"
        }
      ],
      "stateMutability": "view"
    },
    {
      "type": "function",
      "name": "serviceInfoHash",
      "inputs": [
        {
          "name": "_list",
          "type": "tuple",
          "internalType": "struct IEchoEcho.ServiceInfo",
          "components": [
            {
              "name": "provider",
              "type": "address",
              "internalType": "address"
            },
            {
              "name": "nft_ca",
              "type": "address",
              "internalType": "address"
            },
            {
              "name": "token_id",
              "type": "uint256",
              "internalType": "uint256"
            },
            {
              "name": "price",
              "type": "uint256",
              "internalType": "uint256"
            },
            {
              "name": "trialPriceBP",
              "type": "uint256",
              "internalType": "uint256"
            },
            {
              "name": "trialDurationBP",
              "type": "uint256",
              "internalType": "uint256"
            },
            {
              "name": "max_duration",
              "type": "uint256",
              "internalType": "uint256"
            },
            {
              "name": "list_endtime",
              "type": "uint256",
              "internalType": "uint256"
            }
          ]
        }
      ],
      "outputs": [
        {
          "name": "",
          "type": "bytes32",
          "internalType": "bytes32"
        }
      ],
      "stateMutability": "pure"
    },
    {
      "type": "function",
      "name": "serviceNFT_A",
      "inputs": [],
      "outputs": [
        {
          "name": "",
          "type": "address",
          "internalType": "contract IServiceNFT_A"
        }
      ],
      "stateMutability": "view"
    },
    {
      "type": "function",
      "name": "serviceWithdraw",
      "inputs": [
        {
          "name": "_list",
          "type": "tuple",
          "internalType": "struct IEchoEcho.ServiceInfo",
          "components": [
            {
              "name": "provider",
              "type": "address",
              "internalType": "address"
            },
            {
              "name": "nft_ca",
              "type": "address",
              "internalType": "address"
            },
            {
              "name": "token_id",
              "type": "uint256",
              "internalType": "uint256"
            },
            {
              "name": "price",
              "type": "uint256",
              "internalType": "uint256"
            },
            {
              "name": "trialPriceBP",
              "type": "uint256",
              "internalType": "uint256"
            },
            {
              "name": "trialDurationBP",
              "type": "uint256",
              "internalType": "uint256"
            },
            {
              "name": "max_duration",
              "type": "uint256",
              "internalType": "uint256"
            },
            {
              "name": "list_endtime",
              "type": "uint256",
              "internalType": "uint256"
            }
          ]
        }
      ],
      "outputs": [],
      "stateMutability": "nonpayable"
    },
    {
      "type": "function",
      "name": "setFeeTo",
      "inputs": [
        {
          "name": "_feeTo",
          "type": "address",
          "internalType": "address"
        }
      ],
      "outputs": [],
      "stateMutability": "nonpayable"
    },
    {
      "type": "function",
      "name": "setServiceNFT_A",
      "inputs": [
        {
          "name": "_serviceNFT_A",
          "type": "address",
          "internalType": "address"
        }
      ],
      "outputs": [],
      "stateMutability": "nonpayable"
    },
    {
      "type": "function",
      "name": "transferOwnership",
      "inputs": [
        {
          "name": "newOwner",
          "type": "address",
          "internalType": "address"
        }
      ],
      "outputs": [],
      "stateMutability": "nonpayable"
    },
    {
      "type": "event",
      "name": "EIP712DomainChanged",
      "inputs": [],
      "anonymous": false
    },
    {
      "type": "event",
      "name": "FeeToChanged",
      "inputs": [
        {
          "name": "feeTo",
          "type": "address",
          "indexed": true,
          "internalType": "address"
        }
      ],
      "anonymous": false
    },
    {
      "type": "event",
      "name": "List",
      "inputs": [
        {
          "name": "provider",
          "type": "address",
          "indexed": true,
          "internalType": "address"
        },
        {
          "name": "serviceInfoHash",
          "type": "bytes32",
          "indexed": true,
          "internalType": "bytes32"
        }
      ],
      "anonymous": false
    },
    {
      "type": "event",
      "name": "ListCanceled",
      "inputs": [
        {
          "name": "serviceInfoHash",
          "type": "bytes32",
          "indexed": true,
          "internalType": "bytes32"
        }
      ],
      "anonymous": false
    },
    {
      "type": "event",
      "name": "OrderCancelled",
      "inputs": [
        {
          "name": "consumer",
          "type": "address",
          "indexed": true,
          "internalType": "address"
        },
        {
          "name": "provider",
          "type": "address",
          "indexed": true,
          "internalType": "address"
        },
        {
          "name": "serviceInfoHash",
          "type": "bytes32",
          "indexed": true,
          "internalType": "bytes32"
        },
        {
          "name": "refundAmount",
          "type": "uint256",
          "indexed": false,
          "internalType": "uint256"
        }
      ],
      "anonymous": false
    },
    {
      "type": "event",
      "name": "OwnershipTransferred",
      "inputs": [
        {
          "name": "previousOwner",
          "type": "address",
          "indexed": true,
          "internalType": "address"
        },
        {
          "name": "newOwner",
          "type": "address",
          "indexed": true,
          "internalType": "address"
        }
      ],
      "anonymous": false
    },
    {
      "type": "event",
      "name": "ServiceBought",
      "inputs": [
        {
          "name": "consumer",
          "type": "address",
          "indexed": true,
          "internalType": "address"
        },
        {
          "name": "provider",
          "type": "address",
          "indexed": true,
          "internalType": "address"
        },
        {
          "name": "serviceInfoHash",
          "type": "bytes32",
          "indexed": true,
          "internalType": "bytes32"
        },
        {
          "name": "start_time",
          "type": "uint256",
          "indexed": false,
          "internalType": "uint256"
        }
      ],
      "anonymous": false
    },
    {
      "type": "event",
      "name": "ServiceWithdrawn",
      "inputs": [
        {
          "name": "provider",
          "type": "address",
          "indexed": true,
          "internalType": "address"
        },
        {
          "name": "serviceInfoHash",
          "type": "bytes32",
          "indexed": true,
          "internalType": "bytes32"
        },
        {
          "name": "amount",
          "type": "uint256",
          "indexed": false,
          "internalType": "uint256"
        }
      ],
      "anonymous": false
    },
    {
      "type": "error",
      "name": "ECDSAInvalidSignature",
      "inputs": []
    },
    {
      "type": "error",
      "name": "ECDSAInvalidSignatureLength",
      "inputs": [
        {
          "name": "length",
          "type": "uint256",
          "internalType": "uint256"
        }
      ]
    },
    {
      "type": "error",
      "name": "ECDSAInvalidSignatureS",
      "inputs": [
        {
          "name": "s",
          "type": "bytes32",
          "internalType": "bytes32"
        }
      ]
    },
    {
      "type": "error",
      "name": "ErrorCancelListSigner",
      "inputs": []
    },
    {
      "type": "error",
      "name": "ErrorListEndTime",
      "inputs": []
    },
    {
      "type": "error",
      "name": "ErrorListSigner",
      "inputs": []
    },
    {
      "type": "error",
      "name": "ErrorMoneyNotEnough",
      "inputs": [
        {
          "name": "money",
          "type": "uint256",
          "internalType": "uint256"
        },
        {
          "name": "price",
          "type": "uint256",
          "internalType": "uint256"
        }
      ]
    },
    {
      "type": "error",
      "name": "ErrorServiceNotListed",
      "inputs": [
        {
          "name": "serviceInfoHash",
          "type": "bytes32",
          "internalType": "bytes32"
        }
      ]
    },
    {
      "type": "error",
      "name": "FeeToSameAddress",
      "inputs": []
    },
    {
      "type": "error",
      "name": "FeeToZeroAddress",
      "inputs": []
    },
    {
      "type": "error",
      "name": "InvalidShortString",
      "inputs": []
    },
    {
      "type": "error",
      "name": "InvalidSignature",
      "inputs": []
    },
    {
      "type": "error",
      "name": "ListAlreadyCancelled",
      "inputs": [
        {
          "name": "serviceInfoHash",
          "type": "bytes32",
          "internalType": "bytes32"
        }
      ]
    },
    {
      "type": "error",
      "name": "ListEndTimeExpired",
      "inputs": [
        {
          "name": "serviceInfoHash",
          "type": "bytes32",
          "internalType": "bytes32"
        }
      ]
    },
    {
      "type": "error",
      "name": "OnlyConsumerCancelOrder",
      "inputs": [
        {
          "name": "sender",
          "type": "address",
          "internalType": "address"
        },
        {
          "name": "consumer",
          "type": "address",
          "internalType": "address"
        }
      ]
    },
    {
      "type": "error",
      "name": "OnlyOwnerCanList",
      "inputs": []
    },
    {
      "type": "error",
      "name": "OnlyProviderCancelList",
      "inputs": [
        {
          "name": "sender",
          "type": "address",
          "internalType": "address"
        },
        {
          "name": "provider",
          "type": "address",
          "internalType": "address"
        }
      ]
    },
    {
      "type": "error",
      "name": "OnlyProviderWithdraw",
      "inputs": [
        {
          "name": "sender",
          "type": "address",
          "internalType": "address"
        },
        {
          "name": "provider",
          "type": "address",
          "internalType": "address"
        }
      ]
    },
    {
      "type": "error",
      "name": "OrderHasBeenCancelled",
      "inputs": []
    },
    {
      "type": "error",
      "name": "OwnableInvalidOwner",
      "inputs": [
        {
          "name": "owner",
          "type": "address",
          "internalType": "address"
        }
      ]
    },
    {
      "type": "error",
      "name": "OwnableUnauthorizedAccount",
      "inputs": [
        {
          "name": "account",
          "type": "address",
          "internalType": "address"
        }
      ]
    },
    {
      "type": "error",
      "name": "ServicesAlreadyListed",
      "inputs": [
        {
          "name": "serviceInfoHash",
          "type": "bytes32",
          "internalType": "bytes32"
        }
      ]
    },
    {
      "type": "error",
      "name": "ServicesBeingProvided",
      "inputs": [
        {
          "name": "serviceInfoHash",
          "type": "bytes32",
          "internalType": "bytes32"
        }
      ]
    },
    {
      "type": "error",
      "name": "StringTooLong",
      "inputs": [
        {
          "name": "str",
          "type": "string",
          "internalType": "string"
        }
      ]
    },
    {
      "type": "error",
      "name": "TrialDurationExpired",
      "inputs": []
    }
  ],
  "bytecode": {
    "object": "0x6101606040523480156200001257600080fd5b50604051620029c4380380620029c483398101604081905262000035916200025c565b60408051808201825260088152674563686f4563686f60c01b602080830191909152825180840190935260018352603160f81b9083015233916200007b8260006200018e565b610120526200008c8160016200018e565b61014052815160208084019190912060e052815190820120610100524660a0526200011a60e05161010051604080517f8b73c3c69bb8fe3d512ecc4cf759cc79239f7b179b0ffacaa9a75d522b39400f60208201529081019290925260608201524660808201523060a082015260009060c00160405160208183030381529060405280519060200120905090565b60805250503060c0526001600160a01b0381166200015357604051631e4fbdf760e01b8152600060048201526024015b60405180910390fd5b6200015e81620001c7565b50600480546001600160a01b039092166001600160a01b0319928316179055600380549091163317905562000474565b6000602083511015620001ae57620001a68362000219565b9050620001c1565b81620001bb848262000333565b5060ff90505b92915050565b600280546001600160a01b038381166001600160a01b0319831681179093556040519116919082907f8be0079c531659141344cd1fd0a4f28419497f9722a3daafe3b4186f6b6457e090600090a35050565b600080829050601f8151111562000247578260405163305a27a960e01b81526004016200014a9190620003ff565b805162000254826200044f565b179392505050565b6000602082840312156200026f57600080fd5b81516001600160a01b03811681146200028757600080fd5b9392505050565b634e487b7160e01b600052604160045260246000fd5b600181811c90821680620002b957607f821691505b602082108103620002da57634e487b7160e01b600052602260045260246000fd5b50919050565b601f8211156200032e57600081815260208120601f850160051c81016020861015620003095750805b601f850160051c820191505b818110156200032a5782815560010162000315565b5050505b505050565b81516001600160401b038111156200034f576200034f6200028e565b6200036781620003608454620002a4565b84620002e0565b602080601f8311600181146200039f5760008415620003865750858301515b600019600386901b1c1916600185901b1785556200032a565b600085815260208120601f198616915b82811015620003d057888601518255948401946001909101908401620003af565b5085821015620003ef5787850151600019600388901b60f8161c191681555b5050505050600190811b01905550565b600060208083528351808285015260005b818110156200042e5785810183015185820160400152820162000410565b506000604082860101526040601f19601f8301168501019250505092915050565b80516020808301519190811015620002da5760001960209190910360031b1b16919050565b60805160a05160c05160e0516101005161012051610140516124f5620004cf6000396000611916015260006118e401526000611b3201526000611b0a01526000611a6501526000611a8f01526000611ab901526124f56000f3fe6080604052600436106101355760003560e01c806393e1da2b116100ab578063b8247f9b1161006f578063b8247f9b14610451578063c4007b5614610471578063e30b47fe1461049e578063ef8dbf2a146104de578063f2fde38b146104f1578063f46901ed1461051157600080fd5b806393e1da2b146103175780639c3f1e90146103375780639c67696a146103f1578063a489043c14610411578063b66be3041461043157600080fd5b80635036a7c6116100fd5780635036a7c6146102095780635fe228fb146102295780636221acd1146102a9578063715018a6146102bc57806384b0196e146102d15780638da5cb5b146102f957600080fd5b8063017e7e581461013a578063017f6fae1461017757806305c894c41461019a5780630a583c98146101bc5780631a3c3b90146101dc575b600080fd5b34801561014657600080fd5b5060035461015a906001600160a01b031681565b6040516001600160a01b0390911681526020015b60405180910390f35b34801561018357600080fd5b5061018c606481565b60405190815260200161016e565b3480156101a657600080fd5b506101ba6101b5366004611f9e565b610531565b005b3480156101c857600080fd5b506101ba6101d7366004611fe7565b610606565b3480156101e857600080fd5b5061018c6101f7366004612004565b60086020526000908152604090205481565b34801561021557600080fd5b506101ba610224366004611f9e565b610630565b34801561023557600080fd5b50610295610244366004612004565b6005602081905260009182526040909120805460018201546002830154600384015460048501549585015460068601546007909601546001600160a01b039586169794909516959294919392909188565b60405161016e98979695949392919061201d565b6101ba6102b7366004612061565b6108b4565b3480156102c857600080fd5b506101ba6109cd565b3480156102dd57600080fd5b506102e66109e1565b60405161016e979695949392919061212d565b34801561030557600080fd5b506002546001600160a01b031661015a565b34801561032357600080fd5b506101ba6103323660046121c3565b610a27565b34801561034357600080fd5b506103e1610352366004612004565b6006602081815260009283526040928390208054600182015485516101008101875260028401546001600160a01b039081168252600385015481169582019590955260048401549681019690965260058301546060870152938201546080860152600782015460a0860152600882015460c0860152600982015460e0860152600a909101549116929060ff1684565b60405161016e9493929190612260565b3480156103fd57600080fd5b506101ba61040c366004611f9e565b610c7d565b34801561041d57600080fd5b5061018c61042c366004611f9e565b610ec2565b34801561043d57600080fd5b5060045461015a906001600160a01b031681565b34801561045d57600080fd5b506101ba61046c366004612061565b610f33565b34801561047d57600080fd5b5061049161048c366004612004565b610fb6565b60405161016e9190612297565b3480156104aa57600080fd5b506104ce6104b9366004612004565b60076020526000908152604090205460ff1681565b604051901515815260200161016e565b6101ba6104ec366004611f9e565b611089565b3480156104fd57600080fd5b506101ba61050c366004611fe7565b611232565b34801561051d57600080fd5b506101ba61052c366004611fe7565b611270565b604051632922410f60e21b8152600090309063a489043c906105579085906004016122a6565b602060405180830381865afa158015610574573d6000803e3d6000fd5b505050506040513d601f19601f82011682018060405250810190610598919061231e565b6000818152600560205260409020549091506001600160a01b031633146105f9576000818152600560205260409081902054905163242712ef60e11b81523360048201526001600160a01b0390911660248201526044015b60405180910390fd5b61060281611317565b5050565b61060e61138d565b600480546001600160a01b0319166001600160a01b0392909216919091179055565b604051632922410f60e21b8152600090309063a489043c906106569085906004016122a6565b602060405180830381865afa158015610673573d6000803e3d6000fd5b505050506040513d601f19601f82011682018060405250810190610697919061231e565b6000818152600660205260409020549091506001600160a01b031633146106f357600081815260066020526040908190205490516339e48d6d60e01b81523360048201526001600160a01b0390911660248201526044016105f0565b6000818152600660205260409020600a015460ff161561072657604051635a93668160e01b815260040160405180910390fd5b600061271061073d60c085013560a086013561234d565b6107479190612364565b6000838152600660205260409020600101546107639190612386565b90508042106107855760405163812be10560e01b815260040160405180910390fd5b6000828152600660205260408120600a01805460ff191660011790556127106107b36064606087013561234d565b6107bd9190612364565b905060006107cf826060870135612399565b905060006127106107e483608089013561234d565b6107ee9190612364565b905060006107fc8284612399565b604051909150339082156108fc029083906000818181858888f1935050505015801561082c573d6000803e3d6000fd5b506000868152600860205260408120805483929061084b908490612399565b9091555086905061085f6020890189611fe7565b6001600160a01b0316336001600160a01b03167fc9945a84b5350760ffe2d76e1e1fe9b9882f353a789bc9166cd2a420c279f89e846040516108a391815260200190565b60405180910390a450505050505050565b604051632922410f60e21b81528390600090309063a489043c906108dc9085906004016122a6565b602060405180830381865afa1580156108f9573d6000803e3d6000fd5b505050506040513d601f19601f8201168201806040525081019061091d919061231e565b60008181526007602052604090205490915060ff161561095357604051630513dc1d60e11b8152600481018290526024016105f0565b6000818152600560205260409020600701544211156109885760405163bb7dbf5160e01b8152600481018290526024016105f0565b610991826113ba565b156109b2576040516315a525e760e31b8152600481018290526024016105f0565b6109bd858585611533565b6109c685611700565b5050505050565b6109d561138d565b6109df600061188b565b565b6000606080600080600060606109f56118dd565b6109fd61190f565b60408051600080825260208201909252600f60f81b9b939a50919850469750309650945092509050565b600480546040516331a9108f60e11b815291820188905233916001600160a01b0390911690636352211e90602401602060405180830381865afa158015610a72573d6000803e3d6000fd5b505050506040513d601f19601f82011682018060405250810190610a9691906123ac565b6001600160a01b031614610abd57604051633d544af760e21b815260040160405180910390fd5b42811015610add57604051621f038960e51b815260040160405180910390fd5b6040805161010081018252338152600480546001600160a01b03166020830152818301899052606082018890526080820187905260a0820186905260c0820185905260e082018490529151632922410f60e21b81529091600091309163a489043c91610b4b91869101612297565b602060405180830381865afa158015610b68573d6000803e3d6000fd5b505050506040513d601f19601f82011682018060405250810190610b8c919061231e565b6000818152600560205260409020549091506001600160a01b031615610bc857604051631df7a24560e31b8152600481018290526024016105f0565b6000818152600560208181526040808420865181546001600160a01b039182166001600160a01b03199182168117845594890151600184018054919093169116179055818701516002820155606087015160038201556080870151600482015560a08701519381019390935560c0860151600684015560e0860151600790930192909255905183927f4971756e0fe108590344815066c3b5e25ba2bdd9d9a41612a17750a53a0ee07f91a35050505050505050565b604051632922410f60e21b81528190600090309063a489043c90610ca59085906004016122a6565b602060405180830381865afa158015610cc2573d6000803e3d6000fd5b505050506040513d601f19601f82011682018060405250810190610ce6919061231e565b60008181526007602052604090205490915060ff1615610d1c57604051630513dc1d60e11b8152600481018290526024016105f0565b600081815260056020526040902060070154421115610d515760405163bb7dbf5160e01b8152600481018290526024016105f0565b610d5a826113ba565b15610d7b576040516315a525e760e31b8152600481018290526024016105f0565b610d886020840184611fe7565b6001600160a01b0316336001600160a01b031614610dd95733610dae6020850185611fe7565b6040516278940d60e71b81526001600160a01b039283166004820152911660248201526044016105f0565b604051632922410f60e21b8152600090309063a489043c90610dff9087906004016122a6565b602060405180830381865afa158015610e1c573d6000803e3d6000fd5b505050506040513d601f19601f82011682018060405250810190610e40919061231e565b600081815260086020526040808220805490839055905192935091339183156108fc02918491818181858888f19350505050158015610e83573d6000803e3d6000fd5b50604051818152829033907f3c6e314d18cfdc5f49162af9f004821ade08bdda62c05892cd202c26b78898099060200160405180910390a35050505050565b6000610ed16020830183611fe7565b610ee16040840160208501611fe7565b8360400135846060013585608001358660a001358760c001358860e00135604051602001610f1698979695949392919061201d565b604051602081830303815290604052805190602001209050919050565b604051632922410f60e21b8152600090309063a489043c90610f599087906004016122a6565b602060405180830381865afa158015610f76573d6000803e3d6000fd5b505050506040513d601f19601f82011682018060405250810190610f9a919061231e565b9050610fa781848461193c565b610fb081611317565b50505050565b61101060405180610100016040528060006001600160a01b0316815260200160006001600160a01b031681526020016000815260200160008152602001600081526020016000815260200160008152602001600081525090565b5060009081526005602081815260409283902083516101008101855281546001600160a01b0390811682526001830154169281019290925260028101549382019390935260038301546060820152600483015460808201529082015460a0820152600682015460c082015260079091015460e082015290565b604051632922410f60e21b81528190600090309063a489043c906110b19085906004016122a6565b602060405180830381865afa1580156110ce573d6000803e3d6000fd5b505050506040513d601f19601f820116820180604052508101906110f2919061231e565b60008181526007602052604090205490915060ff161561112857604051630513dc1d60e11b8152600481018290526024016105f0565b60008181526005602052604090206007015442111561115d5760405163bb7dbf5160e01b8152600481018290526024016105f0565b611166826113ba565b15611187576040516315a525e760e31b8152600481018290526024016105f0565b604051632922410f60e21b8152600090309063a489043c906111ad9087906004016122a6565b602060405180830381865afa1580156111ca573d6000803e3d6000fd5b505050506040513d601f19601f820116820180604052508101906111ee919061231e565b6000818152600560205260409020549091506001600160a01b031661122957604051636688690360e11b8152600481018290526024016105f0565b610fb084611700565b61123a61138d565b6001600160a01b03811661126457604051631e4fbdf760e01b8152600060048201526024016105f0565b61126d8161188b565b50565b61127861138d565b6001600160a01b03811661129f576040516340c4a8d360e11b815260040160405180910390fd5b6003546001600160a01b038083169116036112cd576040516304e62ffb60e01b815260040160405180910390fd5b600380546001600160a01b0319166001600160a01b0383169081179091556040517f3dedba2a214b4fff9bf20fc473c114824654e0bc70512b4a92f6d5978763c28d90600090a250565b60008181526007602052604090205460ff161561134a57604051630513dc1d60e11b8152600481018290526024016105f0565b600081815260076020526040808220805460ff191660011790555182917fdfc335bcec8bb0051c5b364b65c9f49d525c7e7566e4baaafb4d16dbbe39978391a250565b6002546001600160a01b031633146109df5760405163118cdaa760e01b81523360048201526024016105f0565b604051632922410f60e21b81526000908190309063a489043c906113e29086906004016122a6565b602060405180830381865afa1580156113ff573d6000803e3d6000fd5b505050506040513d601f19601f82011682018060405250810190611423919061231e565b6000818152600660205260409020549091506001600160a01b03161561152a57600081815260066020818152604080842081516080808201845282546001600160a01b039081168352600184015483870190815285516101008101875260028601548316815260038601549092169682019690965260048401548186015260058401546060808301919091529684015491810191909152600783015460a0820152600883015460c080830191909152600984015460e083015293820152600a9091015460ff1615159381019390935290519192916115049187013590612386565b9050804210801561151757508160600151155b1561152757506001949350505050565b50505b50600092915050565b60007f359d652f6c0a0947a009fdf0592be4cf22e1ffc01d0bb5cae822580966d1a5ff6115636020860186611fe7565b6115736040870160208801611fe7565b8660400135876060013588608001358960a001358a60c001358b60e001356040516020016115ef999897969594939291909889526001600160a01b0397881660208a01529590961660408801526060870193909352608086019190915260a085015260c084015260e08301919091526101008201526101200190565b6040516020818303038152906040528051906020012090506000611611611a58565b60405161190160f01b6020820152602281019190915260428101839052606201604051602081830303815290604052805190602001209050600080600061168d87878080601f016020809104026020016040519081016040528093929190818152602001838380828437600092019190915250611b8392505050565b92509250925060006116a185858585611bcd565b90506116b060208a018a611fe7565b6001600160a01b0316816001600160a01b03161415806116d757506001600160a01b038116155b156116f55760405163d250492d60e01b815260040160405180910390fd5b505050505050505050565b604051632922410f60e21b8152600090309063a489043c906117269085906004016122a6565b602060405180830381865afa158015611743573d6000803e3d6000fd5b505050506040513d601f19601f82011682018060405250810190611767919061231e565b9050816060013534101561179957604051623da4a560e71b8152346004820152606083013560248201526044016105f0565b6117a38183611bfb565b60006127106117b360643461234d565b6117bd9190612364565b905060006117cb8234612399565b6003546040519192506001600160a01b03169083156108fc029084906000818181858888f19350505050158015611806573d6000803e3d6000fd5b5060008381526008602052604081208054839290611825908490612386565b909155508390506118396020860186611fe7565b6001600160a01b0316336001600160a01b03167f28a686da39454fcf2a9b984a47f7b99316799b912f24ac8bf326b811858b8f4c4260405161187d91815260200190565b60405180910390a450505050565b600280546001600160a01b038381166001600160a01b0319831681179093556040519116919082907f8be0079c531659141344cd1fd0a4f28419497f9722a3daafe3b4186f6b6457e090600090a35050565b606061190a7f00000000000000000000000000000000000000000000000000000000000000006000611ce9565b905090565b606061190a7f00000000000000000000000000000000000000000000000000000000000000006001611ce9565b604080517fc48c3f2b6d937e93bf114bd01d8c83767ecd86d3826617fe2cc5682c6d20cb416020820152339181019190915260608101849052600090608001604051602081830303815290604052805190602001209050600061199d611a58565b60405161190160f01b60208201526022810191909152604281018390526062016040516020818303038152906040528051906020012090506000806000611a1987878080601f016020809104026020016040519081016040528093929190818152602001838380828437600092019190915250611b8392505050565b9250925092506000611a2d85858585611bcd565b90506001600160a01b03811633146116f55760405163516d713760e11b815260040160405180910390fd5b6000306001600160a01b037f000000000000000000000000000000000000000000000000000000000000000016148015611ab157507f000000000000000000000000000000000000000000000000000000000000000046145b15611adb57507f000000000000000000000000000000000000000000000000000000000000000090565b61190a604080517f8b73c3c69bb8fe3d512ecc4cf759cc79239f7b179b0ffacaa9a75d522b39400f60208201527f0000000000000000000000000000000000000000000000000000000000000000918101919091527f000000000000000000000000000000000000000000000000000000000000000060608201524660808201523060a082015260009060c00160405160208183030381529060405280519060200120905090565b60008060008351604103611bad5750505060208101516040820151606083015160001a9190611bc6565b604051638baa579f60e01b815260040160405180910390fd5b9193909250565b600080600080611bdf88888888611d96565b925092509250611bef8282611e65565b50909695505050505050565b604080516080810182523381524260208201526000918101611c22368590038501856123c9565b8152600060209182018190529485526006808252604095869020835181546001600160a01b03199081166001600160a01b039283161783558585015160018401558589015180516002850180548416918516919091179055948501516003840180549092169216919091179055958201516004870155606080830151600588015560808301519187019190915560a0820151600787015560c0820151600887015560e09091015160098601550151600a909301805460ff1916931515939093179092555050565b606060ff8314611d0357611cfc83611f1e565b9050611d90565b818054611d0f90612475565b80601f0160208091040260200160405190810160405280929190818152602001828054611d3b90612475565b8015611d885780601f10611d5d57610100808354040283529160200191611d88565b820191906000526020600020905b815481529060010190602001808311611d6b57829003601f168201915b505050505090505b92915050565b600080807f7fffffffffffffffffffffffffffffff5d576e7357a4501ddfe92f46681b20a0841115611dd15750600091506003905082611e5b565b604080516000808252602082018084528a905260ff891692820192909252606081018790526080810186905260019060a0016020604051602081039080840390855afa158015611e25573d6000803e3d6000fd5b5050604051601f1901519150506001600160a01b038116611e5157506000925060019150829050611e5b565b9250600091508190505b9450945094915050565b6000826003811115611e7957611e796124a9565b03611e82575050565b6001826003811115611e9657611e966124a9565b03611eb45760405163f645eedf60e01b815260040160405180910390fd5b6002826003811115611ec857611ec86124a9565b03611ee95760405163fce698f760e01b8152600481018290526024016105f0565b6003826003811115611efd57611efd6124a9565b03610602576040516335e2f38360e21b8152600481018290526024016105f0565b60606000611f2b83611f5d565b604080516020808252818301909252919250600091906020820181803683375050509182525060208101929092525090565b600060ff8216601f811115611d9057604051632cd44ac360e21b815260040160405180910390fd5b60006101008284031215611f9857600080fd5b50919050565b60006101008284031215611fb157600080fd5b611fbb8383611f85565b9392505050565b6001600160a01b038116811461126d57600080fd5b8035611fe281611fc2565b919050565b600060208284031215611ff957600080fd5b8135611fbb81611fc2565b60006020828403121561201657600080fd5b5035919050565b6001600160a01b03988916815296909716602087015260408601949094526060850192909252608084015260a083015260c082015260e08101919091526101000190565b6000806000610120848603121561207757600080fd5b6120818585611f85565b925061010084013567ffffffffffffffff8082111561209f57600080fd5b818601915086601f8301126120b357600080fd5b8135818111156120c257600080fd5b8760208285010111156120d457600080fd5b6020830194508093505050509250925092565b6000815180845260005b8181101561210d576020818501810151868301820152016120f1565b506000602082860101526020601f19601f83011685010191505092915050565b60ff60f81b881681526000602060e08184015261214d60e084018a6120e7565b838103604085015261215f818a6120e7565b606085018990526001600160a01b038816608086015260a0850187905284810360c0860152855180825283870192509083019060005b818110156121b157835183529284019291840191600101612195565b50909c9b505050505050505050505050565b60008060008060008060c087890312156121dc57600080fd5b505084359660208601359650604086013595606081013595506080810135945060a0013592509050565b60018060a01b038082511683528060208301511660208401525060408101516040830152606081015160608301526080810151608083015260a081015160a083015260c081015160c083015260e081015160e08301525050565b6001600160a01b03851681526020810184905261016081016122856040830185612206565b82151561014083015295945050505050565b6101008101611d908284612206565b610100810182356122b681611fc2565b6001600160a01b0390811683526020840135906122d282611fc2565b8082166020850152505060408301356040830152606083013560608301526080830135608083015260a083013560a083015260c083013560c083015260e083013560e083015292915050565b60006020828403121561233057600080fd5b5051919050565b634e487b7160e01b600052601160045260246000fd5b8082028115828204841417611d9057611d90612337565b60008261238157634e487b7160e01b600052601260045260246000fd5b500490565b80820180821115611d9057611d90612337565b81810381811115611d9057611d90612337565b6000602082840312156123be57600080fd5b8151611fbb81611fc2565b60006101008083850312156123dd57600080fd5b6040519081019067ffffffffffffffff8211818310171561240e57634e487b7160e01b600052604160045260246000fd5b8160405261241b84611fd7565b815261242960208501611fd7565b602082015260408401356040820152606084013560608201526080840135608082015260a084013560a082015260c084013560c082015260e084013560e0820152809250505092915050565b600181811c9082168061248957607f821691505b602082108103611f9857634e487b7160e01b600052602260045260246000fd5b634e487b7160e01b600052602160045260246000fdfea26469706673582212208e146aaa6058a106229f0ee7b98eb22eba172a6bbd19cd396ed1f8bb5b52443f64736f6c63430008140033",
    "linkReferences": {}
  },
  "methodIdentifiers": {
    "buy((address,address,uint256,uint256,uint256,uint256,uint256,uint256))": "ef8dbf2a",
    "buyWithSign((address,address,uint256,uint256,uint256,uint256,uint256,uint256),bytes)": "6221acd1",
    "cancelList((address,address,uint256,uint256,uint256,uint256,uint256,uint256))": "05c894c4",
    "cancelListWithSign((address,address,uint256,uint256,uint256,uint256,uint256,uint256),bytes)": "b8247f9b",
    "cancelOrder((address,address,uint256,uint256,uint256,uint256,uint256,uint256))": "5036a7c6",
    "canceledOrders(bytes32)": "e30b47fe",
    "eip712Domain()": "84b0196e",
    "feeBP()": "017f6fae",
    "feeTo()": "017e7e58",
    "getServiceInfo(bytes32)": "c4007b56",
    "list(uint256,uint256,uint256,uint256,uint256,uint256)": "93e1da2b",
    "lists(bytes32)": "5fe228fb",
    "orders(bytes32)": "9c3f1e90",
    "owner()": "8da5cb5b",
    "renounceOwnership()": "715018a6",
    "serviceIncome(bytes32)": "1a3c3b90",
    "serviceInfoHash((address,address,uint256,uint256,uint256,uint256,uint256,uint256))": "a489043c",
    "serviceNFT_A()": "b66be304",
    "serviceWithdraw((address,address,uint256,uint256,uint256,uint256,uint256,uint256))": "9c67696a",
    "setFeeTo(address)": "f46901ed",
    "setServiceNFT_A(address)": "0a583c98",
    "transferOwnership(address)": "f2fde38b"
  },
  "id": 44
}