{"abi":[{"type":"constructor","inputs":[{"name":"_name","type":"string","internalType":"string"},{"name":"_symbol","type":"string","internalType":"string"}],"stateMutability":"nonpayable"},{"type":"function","name":"approve","inputs":[{"name":"to","type":"address","internalType":"address"},{"name":"tokenId","type":"uint256","internalType":"uint256"}],"outputs":[],"stateMutability":"nonpayable"},{"type":"function","name":"balanceOf","inputs":[{"name":"owner","type":"address","internalType":"address"}],"outputs":[{"name":"","type":"uint256","internalType":"uint256"}],"stateMutability":"view"},{"type":"function","name":"getApproved","inputs":[{"name":"tokenId","type":"uint256","internalType":"uint256"}],"outputs":[{"name":"","type":"address","internalType":"address"}],"stateMutability":"view"},{"type":"function","name":"isApprovedForAll","inputs":[{"name":"owner","type":"address","internalType":"address"},{"name":"operator","type":"address","internalType":"address"}],"outputs":[{"name":"","type":"bool","internalType":"bool"}],"stateMutability":"view"},{"type":"function","name":"mint_A","inputs":[{"name":"_recipient","type":"address","internalType":"address"},{"name":"_uri","type":"string","internalType":"string"}],"outputs":[{"name":"","type":"uint256","internalType":"uint256"}],"stateMutability":"nonpayable"},{"type":"function","name":"name","inputs":[],"outputs":[{"name":"","type":"string","internalType":"string"}],"stateMutability":"view"},{"type":"function","name":"owner","inputs":[],"outputs":[{"name":"","type":"address","internalType":"address"}],"stateMutability":"view"},{"type":"function","name":"ownerOf","inputs":[{"name":"tokenId","type":"uint256","internalType":"uint256"}],"outputs":[{"name":"","type":"address","internalType":"address"}],"stateMutability":"view"},{"type":"function","name":"renounceOwnership","inputs":[],"outputs":[],"stateMutability":"nonpayable"},{"type":"function","name":"safeTransferFrom","inputs":[{"name":"from","type":"address","internalType":"address"},{"name":"to","type":"address","internalType":"address"},{"name":"tokenId","type":"uint256","internalType":"uint256"}],"outputs":[],"stateMutability":"nonpayable"},{"type":"function","name":"safeTransferFrom","inputs":[{"name":"","type":"address","internalType":"address"},{"name":"","type":"address","internalType":"address"},{"name":"","type":"uint256","internalType":"uint256"},{"name":"","type":"bytes","internalType":"bytes"}],"outputs":[],"stateMutability":"pure"},{"type":"function","name":"setApprovalForAll","inputs":[{"name":"operator","type":"address","internalType":"address"},{"name":"approved","type":"bool","internalType":"bool"}],"outputs":[],"stateMutability":"nonpayable"},{"type":"function","name":"supportsInterface","inputs":[{"name":"interfaceId","type":"bytes4","internalType":"bytes4"}],"outputs":[{"name":"","type":"bool","internalType":"bool"}],"stateMutability":"view"},{"type":"function","name":"symbol","inputs":[],"outputs":[{"name":"","type":"string","internalType":"string"}],"stateMutability":"view"},{"type":"function","name":"tokenURI","inputs":[{"name":"tokenId","type":"uint256","internalType":"uint256"}],"outputs":[{"name":"","type":"string","internalType":"string"}],"stateMutability":"view"},{"type":"function","name":"transferFrom","inputs":[{"name":"","type":"address","internalType":"address"},{"name":"","type":"address","internalType":"address"},{"name":"","type":"uint256","internalType":"uint256"}],"outputs":[],"stateMutability":"pure"},{"type":"function","name":"transferOwnership","inputs":[{"name":"newOwner","type":"address","internalType":"address"}],"outputs":[],"stateMutability":"nonpayable"},{"type":"event","name":"Approval","inputs":[{"name":"owner","type":"address","indexed":true,"internalType":"address"},{"name":"approved","type":"address","indexed":true,"internalType":"address"},{"name":"tokenId","type":"uint256","indexed":true,"internalType":"uint256"}],"anonymous":false},{"type":"event","name":"ApprovalForAll","inputs":[{"name":"owner","type":"address","indexed":true,"internalType":"address"},{"name":"operator","type":"address","indexed":true,"internalType":"address"},{"name":"approved","type":"bool","indexed":false,"internalType":"bool"}],"anonymous":false},{"type":"event","name":"BatchMetadataUpdate","inputs":[{"name":"_fromTokenId","type":"uint256","indexed":false,"internalType":"uint256"},{"name":"_toTokenId","type":"uint256","indexed":false,"internalType":"uint256"}],"anonymous":false},{"type":"event","name":"MetadataUpdate","inputs":[{"name":"_tokenId","type":"uint256","indexed":false,"internalType":"uint256"}],"anonymous":false},{"type":"event","name":"Minted","inputs":[{"name":"recipient","type":"address","indexed":true,"internalType":"address"},{"name":"tokenId","type":"uint256","indexed":true,"internalType":"uint256"}],"anonymous":false},{"type":"event","name":"OwnershipTransferred","inputs":[{"name":"previousOwner","type":"address","indexed":true,"internalType":"address"},{"name":"newOwner","type":"address","indexed":true,"internalType":"address"}],"anonymous":false},{"type":"event","name":"Transfer","inputs":[{"name":"from","type":"address","indexed":true,"internalType":"address"},{"name":"to","type":"address","indexed":true,"internalType":"address"},{"name":"tokenId","type":"uint256","indexed":true,"internalType":"uint256"}],"anonymous":false},{"type":"error","name":"ERC721IncorrectOwner","inputs":[{"name":"sender","type":"address","internalType":"address"},{"name":"tokenId","type":"uint256","internalType":"uint256"},{"name":"owner","type":"address","internalType":"address"}]},{"type":"error","name":"ERC721InsufficientApproval","inputs":[{"name":"operator","type":"address","internalType":"address"},{"name":"tokenId","type":"uint256","internalType":"uint256"}]},{"type":"error","name":"ERC721InvalidApprover","inputs":[{"name":"approver","type":"address","internalType":"address"}]},{"type":"error","name":"ERC721InvalidOperator","inputs":[{"name":"operator","type":"address","internalType":"address"}]},{"type":"error","name":"ERC721InvalidOwner","inputs":[{"name":"owner","type":"address","internalType":"address"}]},{"type":"error","name":"ERC721InvalidReceiver","inputs":[{"name":"receiver","type":"address","internalType":"address"}]},{"type":"error","name":"ERC721InvalidSender","inputs":[{"name":"sender","type":"address","internalType":"address"}]},{"type":"error","name":"ERC721NonexistentToken","inputs":[{"name":"tokenId","type":"uint256","internalType":"uint256"}]},{"type":"error","name":"OwnableInvalidOwner","inputs":[{"name":"owner","type":"address","internalType":"address"}]},{"type":"error","name":"OwnableUnauthorizedAccount","inputs":[{"name":"account","type":"address","internalType":"address"}]}],"bytecode":{"object":"0x608060405260006008553480156200001657600080fd5b5060405162001631380380620016318339810160408190526200003991620001b6565b33828260006200004a8382620002af565b506001620000598282620002af565b5050506001600160a01b0381166200008b57604051631e4fbdf760e01b81526000600482015260240160405180910390fd5b62000096816200009f565b5050506200037b565b600780546001600160a01b038381166001600160a01b0319831681179093556040519116919082907f8be0079c531659141344cd1fd0a4f28419497f9722a3daafe3b4186f6b6457e090600090a35050565b634e487b7160e01b600052604160045260246000fd5b600082601f8301126200011957600080fd5b81516001600160401b0380821115620001365762000136620000f1565b604051601f8301601f19908116603f01168101908282118183101715620001615762000161620000f1565b816040528381526020925086838588010111156200017e57600080fd5b600091505b83821015620001a2578582018301518183018401529082019062000183565b600093810190920192909252949350505050565b60008060408385031215620001ca57600080fd5b82516001600160401b0380821115620001e257600080fd5b620001f08683870162000107565b935060208501519150808211156200020757600080fd5b50620002168582860162000107565b9150509250929050565b600181811c908216806200023557607f821691505b6020821081036200025657634e487b7160e01b600052602260045260246000fd5b50919050565b601f821115620002aa57600081815260208120601f850160051c81016020861015620002855750805b601f850160051c820191505b81811015620002a65782815560010162000291565b5050505b505050565b81516001600160401b03811115620002cb57620002cb620000f1565b620002e381620002dc845462000220565b846200025c565b602080601f8311600181146200031b5760008415620003025750858301515b600019600386901b1c1916600185901b178555620002a6565b600085815260208120601f198616915b828110156200034c578886015182559484019460019091019084016200032b565b50858210156200036b5787850151600019600388901b60f8161c191681555b5050505050600190811b01905550565b6112a6806200038b6000396000f3fe608060405234801561001057600080fd5b506004361061010b5760003560e01c8063715018a6116100a2578063a22cb46511610071578063a22cb4651461021b578063b88d4fde1461022e578063c87b56dd14610241578063e985e9c514610254578063f2fde38b1461026757600080fd5b8063715018a6146101e75780637a1e6593146101ef5780638da5cb5b1461020257806395d89b411461021357600080fd5b806323b872dd116100de57806323b872dd1461018d57806342842e0e146101a05780636352211e146101b357806370a08231146101c657600080fd5b806301ffc9a71461011057806306fdde0314610138578063081812fc1461014d578063095ea7b314610178575b600080fd5b61012361011e366004610dc2565b61027a565b60405190151581526020015b60405180910390f35b6101406102a5565b60405161012f9190610e10565b61016061015b366004610e43565b610337565b6040516001600160a01b03909116815260200161012f565b61018b610186366004610e78565b610360565b005b61018b61019b366004610ea2565b61036f565b61018b6101ae366004610ea2565b6103ca565b6101606101c1366004610e43565b6103ea565b6101d96101d4366004610ede565b6103f5565b60405190815260200161012f565b61018b61043d565b6101d96101fd366004610f85565b610451565b6007546001600160a01b0316610160565b6101406104bc565b61018b610229366004610fe7565b6104cb565b61018b61023c366004611023565b6104d6565b61014061024f366004610e43565b610536565b61012361026236600461109f565b610647565b61018b610275366004610ede565b610675565b60006001600160e01b03198216632483248360e11b148061029f575061029f826106b3565b92915050565b6060600080546102b4906110d2565b80601f01602080910402602001604051908101604052809291908181526020018280546102e0906110d2565b801561032d5780601f106103025761010080835404028352916020019161032d565b820191906000526020600020905b81548152906001019060200180831161031057829003601f168201915b5050505050905090565b600061034282610703565b506000828152600460205260409020546001600160a01b031661029f565b61036b82823361073c565b5050565b60405162461bcd60e51b815260206004820152602560248201527f536f756c626f756e64546f6b656e3a207472616e7366657246726f6d2064697360448201526418589b195960da1b60648201526084015b60405180910390fd5b6103e5838383604051806020016040528060008152506104d6565b505050565b600061029f82610703565b60006001600160a01b038216610421576040516322718ad960e21b8152600060048201526024016103c1565b506001600160a01b031660009081526003602052604090205490565b610445610749565b61044f6000610776565b565b60088054600091829190826104658361110c565b91905055905061047584826107c8565b61047f818461082d565b60405181906001600160a01b038616907f30385c845b448a36257a6a1716e6ad2e1bc2cbe333cde1e69fe849ad6511adfe90600090a39392505050565b6060600180546102b4906110d2565b61036b33838361087d565b60405162461bcd60e51b815260206004820152602f60248201527f536f756c626f756e64546f6b656e3a20736166655472616e7366657246726f6d60448201526e0a19185d184a48191a5cd8589b1959608a1b60648201526084016103c1565b606061054182610703565b506000828152600660205260408120805461055b906110d2565b80601f0160208091040260200160405190810160405280929190818152602001828054610587906110d2565b80156105d45780601f106105a9576101008083540402835291602001916105d4565b820191906000526020600020905b8154815290600101906020018083116105b757829003601f168201915b5050505050905060006105f260408051602081019091526000815290565b90508051600003610604575092915050565b81511561063657808260405160200161061e929190611133565b60405160208183030381529060405292505050919050565b61063f8461091c565b949350505050565b6001600160a01b03918216600090815260056020908152604080832093909416825291909152205460ff1690565b61067d610749565b6001600160a01b0381166106a757604051631e4fbdf760e01b8152600060048201526024016103c1565b6106b081610776565b50565b60006001600160e01b031982166380ac58cd60e01b14806106e457506001600160e01b03198216635b5e139f60e01b145b8061029f57506301ffc9a760e01b6001600160e01b031983161461029f565b6000818152600260205260408120546001600160a01b03168061029f57604051637e27328960e01b8152600481018490526024016103c1565b6103e58383836001610991565b6007546001600160a01b0316331461044f5760405163118cdaa760e01b81523360048201526024016103c1565b600780546001600160a01b038381166001600160a01b0319831681179093556040519116919082907f8be0079c531659141344cd1fd0a4f28419497f9722a3daafe3b4186f6b6457e090600090a35050565b6001600160a01b0382166107f257604051633250574960e11b8152600060048201526024016103c1565b600061080083836000610a97565b90506001600160a01b038116156103e5576040516339e3563760e11b8152600060048201526024016103c1565b600082815260066020526040902061084582826111b0565b506040518281527ff8e1a15aba9398e019f0b49df1a4fde98ee17ae345cb5f6b5e2c27f5033e8ce79060200160405180910390a15050565b6001600160a01b0382166108af57604051630b61174360e31b81526001600160a01b03831660048201526024016103c1565b6001600160a01b03838116600081815260056020908152604080832094871680845294825291829020805460ff191686151590811790915591519182527f17307eab39ab6107e8899845ad3d59bd9653f200f220920489ca2b5937696c31910160405180910390a3505050565b606061092782610703565b50600061093f60408051602081019091526000815290565b9050600081511161095f576040518060200160405280600081525061098a565b8061096984610b90565b60405160200161097a929190611133565b6040516020818303038152906040525b9392505050565b80806109a557506001600160a01b03821615155b15610a675760006109b584610703565b90506001600160a01b038316158015906109e15750826001600160a01b0316816001600160a01b031614155b80156109f457506109f28184610647565b155b15610a1d5760405163a9fbf51f60e01b81526001600160a01b03841660048201526024016103c1565b8115610a655783856001600160a01b0316826001600160a01b03167f8c5be1e5ebec7d5bd14f71427d1e84f3dd0314c0f7b2291e5b200ac8c7c3b92560405160405180910390a45b505b5050600090815260046020526040902080546001600160a01b0319166001600160a01b0392909216919091179055565b6000828152600260205260408120546001600160a01b0390811690831615610ac457610ac4818486610c23565b6001600160a01b03811615610b0257610ae1600085600080610991565b6001600160a01b038116600090815260036020526040902080546000190190555b6001600160a01b03851615610b31576001600160a01b0385166000908152600360205260409020805460010190555b60008481526002602052604080822080546001600160a01b0319166001600160a01b0389811691821790925591518793918516917fddf252ad1be2c89b69c2b068fc378daa952ba7f163c4a11628f55a4df523b3ef91a4949350505050565b60606000610b9d83610c87565b600101905060008167ffffffffffffffff811115610bbd57610bbd610ef9565b6040519080825280601f01601f191660200182016040528015610be7576020820181803683370190505b5090508181016020015b600019016f181899199a1a9b1b9c1cb0b131b232b360811b600a86061a8153600a8504945084610bf157509392505050565b610c2e838383610d5f565b6103e5576001600160a01b038316610c5c57604051637e27328960e01b8152600481018290526024016103c1565b60405163177e802f60e01b81526001600160a01b0383166004820152602481018290526044016103c1565b60008072184f03e93ff9f4daa797ed6e38ed64bf6a1f0160401b8310610cc65772184f03e93ff9f4daa797ed6e38ed64bf6a1f0160401b830492506040015b6d04ee2d6d415b85acef81000000008310610cf2576d04ee2d6d415b85acef8100000000830492506020015b662386f26fc100008310610d1057662386f26fc10000830492506010015b6305f5e1008310610d28576305f5e100830492506008015b6127108310610d3c57612710830492506004015b60648310610d4e576064830492506002015b600a831061029f5760010192915050565b60006001600160a01b0383161580159061063f5750826001600160a01b0316846001600160a01b03161480610d995750610d998484610647565b8061063f5750506000908152600460205260409020546001600160a01b03908116911614919050565b600060208284031215610dd457600080fd5b81356001600160e01b03198116811461098a57600080fd5b60005b83811015610e07578181015183820152602001610def565b50506000910152565b6020815260008251806020840152610e2f816040850160208701610dec565b601f01601f19169190910160400192915050565b600060208284031215610e5557600080fd5b5035919050565b80356001600160a01b0381168114610e7357600080fd5b919050565b60008060408385031215610e8b57600080fd5b610e9483610e5c565b946020939093013593505050565b600080600060608486031215610eb757600080fd5b610ec084610e5c565b9250610ece60208501610e5c565b9150604084013590509250925092565b600060208284031215610ef057600080fd5b61098a82610e5c565b634e487b7160e01b600052604160045260246000fd5b600067ffffffffffffffff80841115610f2a57610f2a610ef9565b604051601f8501601f19908116603f01168101908282118183101715610f5257610f52610ef9565b81604052809350858152868686011115610f6b57600080fd5b858560208301376000602087830101525050509392505050565b60008060408385031215610f9857600080fd5b610fa183610e5c565b9150602083013567ffffffffffffffff811115610fbd57600080fd5b8301601f81018513610fce57600080fd5b610fdd85823560208401610f0f565b9150509250929050565b60008060408385031215610ffa57600080fd5b61100383610e5c565b91506020830135801515811461101857600080fd5b809150509250929050565b6000806000806080858703121561103957600080fd5b61104285610e5c565b935061105060208601610e5c565b925060408501359150606085013567ffffffffffffffff81111561107357600080fd5b8501601f8101871361108457600080fd5b61109387823560208401610f0f565b91505092959194509250565b600080604083850312156110b257600080fd5b6110bb83610e5c565b91506110c960208401610e5c565b90509250929050565b600181811c908216806110e657607f821691505b60208210810361110657634e487b7160e01b600052602260045260246000fd5b50919050565b60006001820161112c57634e487b7160e01b600052601160045260246000fd5b5060010190565b60008351611145818460208801610dec565b835190830190611159818360208801610dec565b01949350505050565b601f8211156103e557600081815260208120601f850160051c810160208610156111895750805b601f850160051c820191505b818110156111a857828155600101611195565b505050505050565b815167ffffffffffffffff8111156111ca576111ca610ef9565b6111de816111d884546110d2565b84611162565b602080601f83116001811461121357600084156111fb5750858301515b600019600386901b1c1916600185901b1785556111a8565b600085815260208120601f198616915b8281101561124257888601518255948401946001909101908401611223565b50858210156112605787850151600019600388901b60f8161c191681555b5050505050600190811b0190555056fea264697066735822122028a2ca7efcebd55fde577e554effe4ebd8b15cb0bc8d2cef24d77ddd79ad8e8f64736f6c63430008140033","linkReferences":{}},"methodIdentifiers":{"approve(address,uint256)":"095ea7b3","balanceOf(address)":"70a08231","getApproved(uint256)":"081812fc","isApprovedForAll(address,address)":"e985e9c5","mint_A(address,string)":"7a1e6593","name()":"06fdde03","owner()":"8da5cb5b","ownerOf(uint256)":"6352211e","renounceOwnership()":"715018a6","safeTransferFrom(address,address,uint256)":"42842e0e","safeTransferFrom(address,address,uint256,bytes)":"b88d4fde","setApprovalForAll(address,bool)":"a22cb465","supportsInterface(bytes4)":"01ffc9a7","symbol()":"95d89b41","tokenURI(uint256)":"c87b56dd","transferFrom(address,address,uint256)":"23b872dd","transferOwnership(address)":"f2fde38b"},"id":43}